:400000000080002011000000810200008102000008B5044B1A6803F53F5302331A6000F04FF900BFFA46004010B5054C237833B9044B13B10448AFF300800123237010BD29
:40004000C089FF1F000000004C930000084B10B51BB108480849AFF300800848036803B910BD074B002BFBD0BDE81040184700BF000000004C930000C489FF1F0881FF1F03
:400080000000000070B506460D461446012000F095FB002000F09EFB304600F00DFB284600F010FB204600F069FB70BD70B506460D461446002000F081FB012000F08AFBDA
:4000C000304600F0F9FA284600F0FCFA204600F055FB70BD10B582B062B600F0B7FB02AC002344F8043D334801F09EF93248214601F0A2F9019B012B0AD100F091F8642071
:400100004FF4FA7100F094F800F08EF800230193019B022B0BD100F083F8502001464FF4FA72FFF7AFFF00F07FF800230193019B032B0BD100F074F8502001464FF4FA72C8
:40014000FFF7B4FF00F070F800230193019B042B0AD100F065F864204FF4FA7100F07CF800F062F800230193019B092B0AD100F057F800204FF47A7100F06EF800F054F873
:4001800000230193019B082B0BD100F049F800204FF47A7100F04CF800F046F80023019303E000F041F800230193019B002BA1D0FEE700BF5893000068930000F8B50C46C1
:4001C000174600250BE023780A2B02D10D2000F061FB661C207800F05DFB01353446BD42F1DB3846F8BD00BFF8B50F461446002612E000F039FB054670B100F04BFB013636
:400200000D2D03D10A2000F045FB0A257B1C3D70013C0A2D02D01F46002CEADC3046F8BD08B500F09DFA08BD08B500F031FA08BD38B504460D46002000F0C0FA002000F011
:40024000C9FA204600F038FA204600F03BFA284600F094FA38BD00BF38B504460D46012000F0ACFA012000F0B5FA204600F024FA204600F027FA284600F080FA38BD00BF90
:4002800008B500F0AFFF03680C2B00D1FEE7FEE708B5094B1A681044084BC31AB3F5006F02DC054B186005E000F09CFF0C2303604FF0FF32104608BD0C81FF1F188AFF1FDA
:4002C00008B5104E104D16E029686B68AC68002204E051F8040B43F8040B0432A242F8D1E868002203E0002143F8041B04328242F9D11035013E002EE6D100F079FFFFF732
:40030000E9FEFEE701000000E897000008B5124A124B1A60124A136843F40073136000230AE0032B03D80F4A52F8231000E00E490E4A42F8231001332F2BF2D90C4B1A7863
:400340000C4B1A70094A0C4B1A6000F0F7F800220A4B1A6008BD00BF0004FA050CED00E014ED00E000000000810200000080FF1FBC7600400481FF1F08ED00E00081FF1FBD
:40038000FEE700BFF0B40022174611E050F82760F3B226F0FF0608E001EB420511F812406D78A5550132013BDBB2002BF4D10137242FEBD9F0BC704708B50A46002100F0E5
:4003C000B5FF08BD38B50122304B1A801823304A1370192502321580023213701D21023211800232137077210232118002321370EF21023211800232137040F2AF410232B9
:400400001180023213700222224B1A7008224FF040231A70032103F5007319701E4B1B78DBB21E490B701E4B1A8041F25122023B1A8000240CE01B4B1B7803F0010343EAD3
:40044000440404F003044FF4F07000F03DFA013D0DB1032CEFD115B90320FFF791FF124B4FF480721A8007221A7000220F490A704820023108701A700222033B1A700C4A5B
:40048000137843F03F03137038BD00BF80400040824000400043004008010049A146004022420040254200400440004006400040A2430040F8B5184B1B78DBB2174E34784C
:4004C000E4B2174F3D78EDB203F00701154A11701B090132137044F00303337045F003033B708022104B1A704023104A137002321370082302F21D221370202103321170DE
:400500002D3213700A2000F04FF93D7034704422074B1A70F8BD00BFCF010049F8460040F94600406E5800402D510040095900407658004008B500F083FE08BD38B572B6DE
:400540003A4A137843F00403137000240CE0384963001A1952000A4423445B00C8589188FFF72AFF0134E4B2072CF0D900240BE02F49A3001A1952000A44106B516B0622AB
:40058000FFF7D8FF0134E4B2002CF1D04FF090402849FFF7F7FE284A137843F0020313701032137843F002031370244C237843F040032370A2F58632513A137843F010034C
:4005C00013701F481F490822FFF7B4FF1E481F490A22FFF7AFFF1E481E490822FFF7AAFF1D481E490822FFF7A5FF1D481D490A22FFF7A0FF1C481D490822FFF79BFF1C4A9C
:40060000137843F0080313701A4D61232B70FFF7D9FE81232B700122174B1A70FFF74AFF164821460E22FFF785FF38BDE84600406C9300009400004803500140A04300402A
:40064000025100407C080048C051004084080048F251004090080048125100409808004820510040A008004832510040AC080048224300400048004004000840B0430040FC
:40068000024A137843F080031370704777650040024A137803F07F031370704777650040014B1870704700BF07650040014B1870704700BF47650040014B1870704700BF3F
:4006C00027650040014B1870704700BF37650040014B1870704700BF87650040014B1878704700BF67650040014B1878704700BF5765004008B501E0FFF7F6FFFFF7EEFF7A
:4007000010F0100FF8D108BD10B5134A137803F0C00343F009031370104C237843F001032370FF20FFF7BCFFFF20FFF7BFFF2820FFF7C2FF2820FFF7C5FF0020FFF7C8FFA5
:4007400000F0CAF8237843F01003237000F0C8F8FFF7D0FF10BD00BF776500409765004008B5054B1B7823B9FFF7CEFF0122024B1A70FFF785FF08BDDC89FF1F10B50446F0
:4007800005E0084B186800F09FF8A4F50044B4F5004FF6D8034B586800FB04F000F094F810BD00BF1081FF1F08B5034B1B7A03FB00F000F089F808BD1081FF1F044A137857
:4007C00003F07F03C001C0B203431370704700BF30510040044A137803F0FE0300F0010018431070704700BFF05100407222084B1A702022A3F580731A700622A1331A7073
:40080000472210331A700022B03B1A70704700BF8865004010B500F05FF804460A4A137843F020031370A2F58072137843F0100313700132137843F01003137000F036F8B8
:40084000204600F04DF810BD9865004008B5054B1B7823B9FFF7CAFF0122024B1A70FFF7D9FF08BDDD89FF1F084B1B78DBB213F0200F06D0064A1078C0B213F01E0F02D1BF
:400880007047002070470020704700BF686400404B650040034B1B7813F0040FFAD1024B187070476964004049640040054A137843F0020313701032137843F002031370B3
:4008C000704700BFA24300400230800803D000BF01380046FCD17047EFF3108072B6704780F31088704700BF10B431F0004408D0114BA1F580129A4208D804205DF8044B33
:40090000704718B902205DF8044B704701F1FF41094B01F5E0019942EFD9B4F5801F01D20320EBE7054B9C4201D00020E6E7B0FA80F04009E2E700BFFFFFDF7F0000F07F00
:4009400081F0004102E000BF83F0004330B54FEA41044FEA430594EA050F08BF90EA020F1FBF54EA000C55EA020C7FEA645C7FEA655C00F0E2804FEA5454D4EB5555B8BFCB
:400980006D420CDD2C4480EA020281EA030382EA000083EA010180EA020281EA0303362D88BF30BD11F0004F4FEA01314FF4801C4CEA113102D0404261EB410113F0004FB9
:4009C0004FEA03334CEA133302D0524263EB430394EA050F00F0A780A4F10104D5F1200E0DDB02FA0EFC22FA05F2801841F1000103FA0EF2801843FA05F359410EE0A5F127
:400A000020050EF1200E012A03FA0EFC28BF4CF0020C43FA05F3C01851EBE37101F0004507D54FF0000EDCF1000C7EEB00006EEB0101B1F5801F1BD3B1F5001F0CD3490840
:400A40005FEA30004FEA3C0C04F101044FEA445212F5800F80F09A80BCF1004F08BF5FEA500C50F1000041EB045141EA050130BD5FEA4C0C404141EB010111F4801FA4F1C2
:400A80000104E9D191F0000F04BF01460020B1FA81F308BF2033A3F10B03B3F120020CDA0C3208DD02F1140CC2F10C0201FA0CF021FA02F10CE002F11402D8BFC2F1200CCF
:400AC00001FA02F120FA0CFCDCBF41EA0C019040E41AA2BF01EB0451294330BD6FEA04041F3C1CDA0C340EDC04F11404C4F1200220FA04F001FA02F340EA030021FA04F34D
:400B000045EA030130BDC4F10C04C4F1200220FA02F001FA04F340EA0300294630BD21FA04F0294630BD94F0000F83F4801306BF81F480110134013D4EE77FEA645C18BFF7
:400B40007FEA655C29D094EA050F08BF90EA020F05D054EA000C04BF1946104630BD91EA030F1EBF0021002030BD5FEA545C05D14000494128BF41F0004130BD14F58004E6
:400B80003CBF01F5801130BD01F0004545F0FE4141F470014FF0000030BD7FEA645C1ABF194610467FEA655C1CBF0B46024650EA013406BF52EA033591EA030F41F400216A
:400BC00030BD00BF90F0000F04BF0021704730B54FF4806404F132044FF000054FF0000150E700BF90F0000F04BF0021704730B54FF4806404F1320410F0004548BF40423F
:400C00004FF000013EE700BF42004FEAE2014FEA31014FEA02701FBF12F07F4393F07F4F81F06051704792F0000F14BF93F07F4F704730B54FF4607401F0004521F0004160
:400C400020E700BF50EA010208BF704730B54FF000050AE050EA010208BF704730B511F0004502D5404261EB41014FF4806404F132045FEA915C3FF4DCAE4FF003025FEA41
:400C8000DC0C18BF03325FEADC0C18BF033202EBDC02C2F1200300FA03FC20FA02F001FA03FE40EA0E0021FA02F11444C1E600BF70B54FF0FF0C4CF4E06C1CEA11541DBF1B
:400CC0001CEA135594EA0C0F95EA0C0F00F0DEF82C4481EA030621EA4C5123EA4C5350EA013518BF52EA033541F4801143F4801338D0A0FB02CE4FF00005E1FB02E506F09A
:400D00000042E0FB03E54FF00006E1FB03569CF0000F18BF4EF0010EA4F1FF04B6F5007F64F5407404D25FEA4E0E6D4146EB060642EAC62141EA55514FEAC52040EA5E5066
:400D40004FEACE2EB4F1FD0C88BFBCF5E06F1ED8BEF1004F08BF5FEA500E50F1000041EB045170BD06F0004646EA010140EA020081EA0301B4EB5C04C2BFD4EB0C0541EA74
:400D8000045170BD41F480114FF0000E013C00F3AB8014F1360FDEBF002001F0004170BDC4F10004203C35DA0C341BDC04F11404C4F1200500FA05F320FA04F001FA05F2A9
:400DC00040EA020001F0004221F0004110EBD37021FA04F642EB06015EEA430E08BF20EAD37070BDC4F10C04C4F1200500FA04F320FA05F001FA04F240EA020001F00041F3
:400E000010EBD37041F100015EEA430E08BF20EAD37070BDC4F1200500FA05F24EEA020E20FA04F301FA05F243EA020321FA04F001F0004121FA04F220EA020000EBD37093
:400E40005EEA430E08BF20EAD37070BD94F0000F0FD101F00046400041EB010111F4801F08BF013CF7D041EA060195F0000F18BF704703F00046520043EB030313F4801F58
:400E800008BF013DF7D043EA0603704794EA0C0F0CEA135518BF95EA0C0F0CD050EA410618BF52EA4306D1D181EA030101F000414FF0000070BD50EA410606BF10461946AE
:400EC00052EA430619D094EA0C0F02D150EA013613D195EA0C0F05D152EA03361CBF104619460AD181EA030101F0004141F0FE4141F470014FF0000070BD41F0FE4141F4AB
:400F0000780170BD70B54FF0FF0C4CF4E06C1CEA11541DBF1CEA135594EA0C0F95EA0C0F00F0A7F8A4EB050481EA030E52EA03354FEA013100F088804FEA03334FF080552B
:400F400045EA131343EA12634FEA022245EA111545EA10654FEA00260EF000419D4208BF964244F1FD0404F5407402D25B084FEA3202B61A65EB03055B084FEA32024FF446
:400F800080104FF4002CB6EB020E75EB030E22BFB61A754640EA0C005B084FEA3202B6EB020E75EB030E22BFB61A754640EA5C005B084FEA3202B6EB020E75EB030E22BFB7
:400FC000B61A754640EA9C005B084FEA3202B6EB020E75EB030E22BFB61A754640EADC0055EA060E18D04FEA051545EA16754FEA06164FEAC30343EA52734FEAC2025FEA68
:401000001C1CC0D111F4801F0BD141EA00014FF000004FF0004CB6E711F4801F04BF01430020B4F1FD0C88BFBCF5E06F3FF6AFAEB5EB030C04BFB6EB020C5FEA500C50F17B
:40104000000041EB045170BD0EF0004E4EEA113114EB5C04C2BFD4EB0C0541EA045170BD41F480114FF0000E013C90E645EA060E8DE60CEA135594EA0C0F08BF95EA0C0FCB
:401080003FF43BAF94EA0C0F0AD150EA01347FF434AF95EA0C0F7FF425AF104619462CE795EA0C0F06D152EA03353FF4FDAE1046194622E750EA410618BF52EA43067FF460
:4010C000C5AE50EA41047FF40DAF52EA43057FF4EBAE12E74FF0FF3C06E000BF4FF0010C02E000BF4FF0010C4DF804CD4FEA410C7FEA6C5C4FEA430C18BF7FEA6C5C1BD0A6
:4011000001B050EA410C0CBF52EA430C91EA030F02BF90EA020F0020704710F1000F91EA030F58BF994208BF90422CBFD8176FEAE37040F0010070474FEA410C7FEA6C5C24
:4011400002D150EA013C07D14FEA430C7FEA6C5CD6D152EA033CD3D05DF8040B704700BF8446104662468C461946634600E000BF01B5FFF7B7FF002848BF10F1000F01BD55
:401180004DF808EDFFF7F4FF0CBF012000205DF808FB00BF4DF808EDFFF7EAFF34BF012000205DF808FB00BF4DF808EDFFF7E0FF94BF012000205DF808FB00BF4DF808ED91
:4011C000FFF7CEFF94BF012000205DF808FB00BF4DF808EDFFF7C4FF34BF012000205DF808FB00BF014B1868704700BF4885FF1F70B50F4E0F4D761BB61018BF002405D011
:40120000013455F8043B9847A642F9D10A4E0B4D08F0D6FA761BB61018BF002406D0013455F8043B9847A642F9D170BD70BD00BFCC970000CC970000D8970000CC970000B9
:40124000844641EA000313F0030349D1403A23D30B6803604B6843608B688360CB68C3600B6903614B6943618B698361CB69C3610B6A03624B6A43628B6A8362CB6AC362C3
:401280000B6B03634B6B43638B6B8363CB6BC36340304031403ADBD230320BD30B6803604B6843608B688360CB68C36010301031103AF3D20C3205D351F8043B40F8043B79
:4012C000043AF9D2043208D0D2071CBF11F8013B00F8013B01D30B8803806046704700BF082A13D38B07B1D010F00303AED0C3F10403D21ADB071CBF11F8013B00F8013B18
:40130000A4D331F8023B20F8023B9FE7043AD9D3013A11F8013B00F8013BF9D20B7803704B7843708B7883706046704770B4840746D0541E002A41D0CDB2034602E0621E31
:40134000E4B3144603F8015B9A07F8D1032C2ED9CDB245EA05250F2C45EA054519D9264603F11002103E0F2E42F8105C42F80C5C42F8085C42F8045C02F11002F2D8A4F126
:40138000100222F00F0204F00F041032032C13440DD91E462246043A032A46F8045BFAD8221F22F003020432134404F003042CB1C9B21C4403F8011BA342FBD170BC70475A
:4013C00014460346C2E700BFF0B5044689B008460D4600F045F8A36802219A89DFF844E000F1010C012704AE0291910404950590CDF80CC0CDF818E00797019606D4596E4E
:4014000042F4005221F400519A8159662046194601AA01F0FFF9002814BF4FF0FF300A2009B0F0BDB0930000024B01461868FFF7CBBF00BF4885FF1F0FB410B5074B82B005
:4014400004AC54F8042B186823464168019400F02FFF02B0BDE8104004B070474885FF1F20F0030110F00300C0F1000051F8043B00F1040C4FEACC0C6FF000021CBF22FA45
:401480000CF213434FF0010C4CEA0C2C4CEA0C4CA3EB0C0222EA030212EACC1204BF51F8043B0430F4D0C2F1000102EA0102B2FA82F2C2F11F0200EBD20070472DE9F04F66
:4014C0008A468989ADF52D7D8E040290039309D4DAF8643041F4005123F40053AAF80C10CAF86430164616F8011B0023089306939B460793DFF85C84119179B3D8F8000010
:4015000043185B7803F0080303F0FF055BB3DAF80430029C1A4612E0DAF80030D8F800101A7801330A445278150710D5DAF804200BF1010B013ACAF80030CAF80420002A88
:40154000EADC2046514602F0D3F80028E4D03246164616F8011B11910029CFD107980DF52D7DBDE8F08F252940F082802C465378711C782B00F2B982DFE813F09300B70207
:40158000B702B702B702B702B702B702B702B702B702B702B702B702B702B702B702B702B702B702B702B702B702B702B702B702B702B702B702B702B702B702B702B7020B
:4015C000B702B702B7027900B702B702B702B7023002B702B702B702B702B7025A025A025A025A025A025A025A025A025A025A02B702B702B702B702B702B702B702B70234
:40160000B702B70235027902B7027902B702B702B702B7027402B702B7026B02B702B702B702B702B702B702B702B7026202B702B7029902B702B702B702B702B702B7028A
:40164000B702940292027902790279028D029900B702B702AF02B7027E027C02AB02B702B702A802B702A102B702B70262020E46DAF80430002B40F34085DAF8003016F88C
:40168000012C197891427FF469AFDAF804200133013ACAF80420CAF800300BF1010B324656E74FF0FF300DF52D7DBDE8F08F0E46A64B0327089300230693DAF80430002BDF
:4016C00040F39E816B0610D5013F032F00F2BE80DFE817F0E3009200220016020298514602F006F8002840F09281D8F80010DAF8002001E0CAF80020137801320B445B7822
:401700001807E1D5DAF804300BF1010B013B002BCAF80430EEDCE1E754AA4FF00009099217464A46631EB3F5AE7F86BF6FF4AE7163180023994688BF40F25D145B4693460B
:40174000B446069E45F45865DAF800100878A0F12B024D2A00F2E180DFE812F02A01DF002A01DF00DF00FE00CA00CA00CA00CA00CA00CA00CA003A013A01DF00DF00DF0098
:40178000DF00DF00DF00DF00250125012501250125012501DF00DF00DF00DF00DF00DF00DF00DF00DF00DF00DF00DF00DF00DF00DF00DF00DF002F01DF00DF00DF00DF004E
:4017C000DF00DF00DF00DF00250125012501250125012501DF00DF00DF00DF00DF00DF00DF00DF00DF00DF00DF00DF00DF00DF00DF00DF00DF002F01002C08BF4FF0FF3425
:4018000015F0010340F0C083ED0640F13B831D46D8F80010DAF80020137801320B445B78180737D4DAF804300135013BAC428AE80C002FD0002BEFDC0298514601F058FFB9
:4018400040BBD8F80010DAF80020E5E7002C08BF012415F0010340F04683EA0640F12A841D46029F0BE01A44CAF80020384651461D44E41A01F03CFF002840F015849AE8A4
:401880000C00A342EFDB1B1B2244CAF804302544CAF80020AB4432465AE6002C08BF4FF0FF34EB0640F1BC82DAF80010002514AF0B780131FB5CB3B1DAF804300135013B72
:4018C000AC428AE80A00E5D0002BF1DC0298514601F00EFF0028DDD1DAF800100B780131FB5C002BE8D1002D3FF438AEAB44D2E7174A25F4386532F91660DAF804203870B6
:40190000013A002A07F10107CAF804203EDD0131CAF80010013C7FF417AFEA050696D94666469B4607D5099B9F4200F2D983099B9F423FF413AE15F0100400F04C83099BEC
:401940003246FF1A4F44BB4402E600BFE9480000B49300004C85FF1F2A05CED516B945F4007508266A0500F15E8325F46075B9F1000F02D009F1FF390134DAF804200BF1A6
:40198000010B013A002ACAF80420C0DC02985146CDF810C0069301F0ABFE069BDDF810C00028B7D0B9E70A2EB7DD25F43865A4E72A06B2D525F080059FE705F4C062B2F500
:4019C000007FAAD125F4007545F4A065102694E7A34A32F91660082EE7DC9EE7737845F010050E46C4E50E4645F001059D4B032708930A230693DAF80430002B3FF762AEB9
:401A00000298514601F074FE00283FF45BAE079A002A3FF446AEBAF80C3013F0400F134618BF4FF0FF3318460DF52D7DBDE8F08F04EB840403EB4404303C73780E4697E5D9
:401A40000E4645F40075884B032708931023069333E60E4645F00105834B03270893082306932AE6737845F002050E4680E50E46042722E60E46EFE7EC060E463FF567ADD2
:401A8000680740F15383039A136804320392A3F800B032465CE5737845F004050E4667E50E46A3E70E4645F04005002705E614A801F0B8FE45F0400506460127FDE56A4B5A
:401AC0000E4608930A2306930327F6E50E460227F3E50E4645F40875B5E773786C2B00F01F8345F001050E4642E503445B780E4603F00303012B7FF479AF45F0010575E7A2
:401B0000029801F07BF8631E0268B3F5AE7F0D9240F283816FF4AE72A31840F25D140C93002754AB0A9699463A463E4609930F970E970B9745F4F065DAF800000178A1F1F5
:401B40002B0EBEF14E0F00F23B81DFE81EF07B0039017B00390139016F004F004F004F004F004F004F004F004F004F00390139013901390139013901390134013901390184
:401B800039011D01180139013901A00039013901390139018F00390139013901390139018400390139013901390180003901390139013901390139013901340139013901DC
:401BC00039011D01180139013901A00039013901390139018F0039013901390139013901840039013901390139018000D74215D125F4C07589F8001009F10109DAF8041013
:401C0000013C013900290BF1010BCAF8041040F3E4800130CAF80000002C8DD104963B461746049A0A9E002A41D0F3E0EB05DDD50C9B25F080050136002BDFD0013B0C9377
:401C40000134DBE72B06E9D525F08005D2E7072AE4D10822CEE7062AE0D10722CAE700BFB4930000E9480000D14B0000002F40F0C8802EB905F4E06EBEF5E06F00F04582CA
:401C8000012A01D0042AC9D10132D2B2B2E7002A40F0B080002E40F0B98005F4E06EBEF5E06F00F026823B46174604960A9E013B012B40F2C9827B1E062B1BD8022F40F2E9
:401CC000D282032F16D03C1FE4B2E7430A954F444D46A146029C15F8011D2046524604F0BDFBBD42F7D14C460BF1FF3BA9460A9DC4EB0B0BEA051CD56B0500F1C38219F8BD
:401D0000011C09F1FF3365290BF1FF340BD0452909D00298524604F0A1FB19F8021CABF10204A9F1020302985246A346994604F095FB15F010027FF40AAC05F4C063B3F5C7
:401D4000806F89F8002000F0E4810E9B002B40F08F8100220999029801F02EFEEF0702460B4640F14A810398016804300390C1E90023079B324601330793FFF7E9BB022A1E
:401D80007FF44CAF032235E705F4A06EBEF5806F04D06B057FF542AF002E84D0AB0504D40B9BCDF83C90F31A0E9325F4F06545F4C07500261EE7012F7FF430AF022719E781
:401DC0000D9B93F800E08E457FF428AFAB057FF525AF25F420750B960CE702985146049201F086FC049A00287FF418AF002C7FF4A3AE13E7032A3FF447AF052A3FF444AFAA
:401E00000CE7022F7FF43CAF0327F3E63B46174604960A9E25F4807549E700230C937FE6039A14AF134615680433A9460393DAF800301A78591CBA5CC2B1DAF80420CAF85C
:401E40000010013ACAF804201B78013C09F8013B0CD0DAF80430002BE9DC0298514601F047FC0028E3D0A9453FF4D1ADB9EB05053FF474AB079A00230132079289F8003032
:401E8000AB4408E5039A1568171DA946DAF80010D8F800200B78481C13445B781B0715D4DAF80430CAF80000013BCAF804300B78013C09F8013B09D0DAF80430002BE5DC59
:401EC0000298514601F014FC0028DFD0079AC5EB0905013200230792AB44039789F800303246FFF735BB12AB1846002108220993FFF71CFA15F010030A9300F0AA800023F3
:401F000019460B960E460025A9460A9D54AFCDF810B000F06DFE48453FF479AD9AE80A00099A11F801EB013B09F1010BCAF80010029800923146CAF8043007F809E05B466F
:401F40003A4601F0E5F8411C3FF461AD002840F0A38005B93560049B013C5B440493002D40F09F80A9460436DAF80430002B63DD002CCED1DDF810B00B9E0A9B002B3FF473
:401F8000F8AE3246FFF7E4BA12AB1846002108220993FFF7CBF915F0100947D011AD002217460496DAF80030D8F800201B7813445B781E0702D4002C40F0EE80049EB9F1E7
:401FC000000F7FF4C4AA079BC5F80090013307933246FFF7BDBA2246069B3C7002980999089CA047AB063BD5039A1368043203921860079B01330793A1E4AC073FF5B3AE7A
:40200000CDE90423039B1D1D1C68FEF76DFCDDE90423002800F0BB801046194606F04EFE03952060A5E625F4B06566E4039A1346043315680393B2E70298514601F058FB69
:40204000002895D04D46DDF810B00B9E002D94D0DDE4039A1368194613460433039350E76C077CD5039A1368043203921880C0E70F9C0A230298611C02F036FCA1460E9B53
:40208000C21A0DF2A323994528BF0DF2A2294846854901F007FC5CE602307FF45CAFD94662E74FF000095FE7002D3FF4B0ACAB44FFF7F1BB039D234629680298CDF800A0D2
:4020C000012200F0B7F92B46043300283FF49FAC079A83440132079203933246FFF738BA7B1E17F8011C029852461F4604F0B6F91DE425F4F06501227CE50298514601F091
:40210000F7FA00283FF4B9AA81E425F4F065012770E50B9A049B9B1A5A42002BB1D118E6B37845F002050236FFF722BAE9070DD4AA070BD5039A134611685A4604330393B1
:40214000D317C1E900233246FFF702BA039A136804320392C3F800B03246FFF7F9B915F001027FF441AFA9077FF53EAF4F4B0899029899420999069B00F0938002F042FC6E
:40218000039A136804320392C3E9000131E701F085FB03952060ECE500F02AFDB8423FF436AC9AE80A0011F8012B0DF5A87ECAF8001009997E1C013B009102980EF807206C
:4021C000CAF8043029463346724600F0A1FF471C3FF41DACC0B9286000F0F8FC40B33746049E002F3FF4EBAE54ABDC1904952546029C013F204615F8011D524604F02EF94E
:40220000002FF6D1049DDAE6023019D13746DAF80430002B3FF7C6AE0298514601F068FA00283FF4BFAE049E002F7FF4F0ABC6E6B344013CB9F1000F04D104354F46E6E79F
:402240002868C9E70746E2E7099B99457FF686A919F8011D0298524604F000F9099B9945F6D1FFF77BB9099B99457FF677A919F8011D0298524604F0F1F8099B9945F6D183
:40228000FFF76CB9099B99457FF668A919F8011D0298524604F0E2F8099B9945F6D1FFF75DB902F02FFD6BE7D8930000D14B000030B5044685B040B1856B35B90393029223
:4022C000019100F097F801A90EC9204605B0BDE83040FFF7F3B800BF024B13B1024800F005B870470000000009240000014600200246034604F092B9014900F03FBC00BFA5
:40230000C17600002DE9F04F074635487D68002407F53B7204230321F863C7F8E412C7F8E822C7F8E04283B02C606C60AC606C66EC812C616C61AC61AB81214605F15C006E
:402340000822FEF7F3FFDFF89CB0BE68DFF898A0DFF89890DFF8988001230922C5F820B0C5F824A0C5F82890C5F82C80ED612146F381B28106F15C0034607460B4607466C6
:4023800034617461B46108220193FEF7CFFFFD6812200222F661C6F820B0C6F824A0C6F82890C6F82C802146A881EA812C606C60AC606C662C616C61AC6105F15C00082207
:4023C000FEF7B4FF019BED61C5F820B0C5F824A0C5F82890C5F82C80BB6303B0BDE8F08FF9220000F1380000153900004D3900006D390000836B03B17047FFF783BF00BF5C
:40240000704700BF704700BF38B5084B084DED1AAC1018BFED1805D0013C55F8043D9847002CF9D1BDE8384007F0D6B9E4970000E89700002DE9F04F02FB03F585B0904615
:402440000393DDF838B0002D48D08946044618B1826B002A00F0A880BBF80C2091B288040AD4DBF8641042F4005221F40050ABF80C2091B2CBF86400DBF80460002E38DB42
:402480008B0732463CD4AA4611E03246FEF7D8FEDBF8002020463244CBF800205946C6EB0A0AB14401F024F9E0B9DBF80460B2454846DBF80010E8D85246FEF7C1FEDBF8AE
:4024C0000410DBF80020CAEB010152440398CBF80410CBF8002005B0BDE8F08F284605B0BDE8F08FCAEB0505B5FBF8F005B0BDE8F08F00208B0702460646CBF80400C2D53F
:40250000AA4228BF2A469246DBF800104846FEF797FEDBF80060DBF80420DBF8301006EB0A03CAEB0202019309EB0A07CBF80030CBF80420CAEB050600293ED0002E3ED0EB
:402540000BF14000814205D0204600F08BF8DBF8003001930021CBF83010DBF81030DBF814A002934FF0000900E046B3CBF81070CBF81460CBF800705946204601F0B8F850
:40258000029BDBF80410CBF81030019BCBF814A0CBF80030761A0F44CBF804900028E4D0AD1BB5FBF8F096E7FFF724FFBBF80C2091B288043FF560AF53E7002ECDD10398F0
:4025C00005B0BDE8F08F00BFF8B50C46224F064600F090FEBB685D6825F00305291B01F6EF7121F47F6121F00F01A1F58054B4F5805F07DB3046002101F002F9BB682B446A
:40260000984204D0304600F077FE0020F8BD3046614201F0F5F801300DD0104BBA6819682D1B45F001053046091B5560196000F063FE0120F8BD3046002101F0E1F8BA6844
:40264000831A0F2BDEDD064C0449246843F00103001B53600860D5E7AC85FF1FEC89FF1FB889FF1F00294ED02DE9F0410C46804600F040FE54F8047C6249A4F1080527F02F
:402680000102AB188E6858689E4220F003005AD0FE0758600BD454F8087C01F1080EED1BAC683A44744567D0EF68E760BC601C186468E4070CD4544F9C680244BC427CD0C7
:4026C000D86842F00103E06084606B60AA5003E042F001036B60AA50B2F5007F14D2D20801EBC20301244868921004FA02F29C681043AC60EB6048609D60E5604046BDE8DA
:40270000F04100F0F9BD7047530A042B47D8930903F13804600001EB800083683949834243D0596821F00301914202D99B689842F7D1DA68EA60AB6040469560DD60BDE866
:40274000F04100F0D9BDFF07024407D454F8084C2D1BEB68A8682244C36098602B4B42F001001B6868609A428D60C7D3284B40461968FFF729FFC1E719184968C90709D489
:40278000D96802449B6842F00100D9608B606860AA50B3E742F001036B60AA50AEE7142B14D803F15B046000B5E74A68A4100120A04002434A601A46BCE742F001034D6195
:4027C0000D61EC60AC606B60AA5097E7542B04D8130B03F16E0460009DE7B3F5AA7F04D8D30B03F17704600095E740F25450834204D8930C03F17C0460008CE7FC207E241C
:4028000089E700BFAC85FF1FB485FF1FB489FF1FE889FF1F9368002B00F0B1802DE9F04FB1F80CE083B01EF0080F0C468146164628D00B6933B30EF002081FFA88F0356853
:4028400080B34FF0000BD846DFF8E4A2B8F1000F00F08F80D0454346484628BF5346E1695A46676AB847002840F3A880B36883441B1AC0EB0808B360002BE7D1002003B025
:40288000BDE8F08F4846214603F066FE002840F04681B4F80CE035680EF002081FFA88F00028CED11EF0010B40F09180D846B8F1000F58D01EF4007FA76862D0B845BA46CC
:4028C000C0F0C2801EF4906F00F0C08067692169236807EB47075B1A07EBD777581C7F10404487423A463CBF07463A461EF4806F009300F0FB801146484600F083F9009B48
:402900008246002800F00E811A4621690093FEF797FCA289009B22F4906242F08002A2810AEB0300C4F810A0FB1A6761C24647462060A3605246594600F078FCA0682268F8
:40294000C01BA060404602EB0A032360B36883441B1AC0EB0808B360002B8FD0B4F80CE0B8F1000FA6D1D5F800B0D5F8048008359DE7D5F800B0D5F80480083566E700203C
:40298000704720682369984203D86269904580F08580474528BF474659463A4600F046FCA3682268DB1B3A44A3602260002B49D14846214604F06AFF002843D0A38943F072
:4029C00040034FF0FF30A38103B0BDE8F08F8046834682460090BAF1000F2BD0009B002B4FD0D045434628BF5346206821691F468842D4F808E0626903D90EEB020C634541
:402A00005EDC934224DB1346676A4846E1695A46B847071ED2DDB8EB070829D0B368BB44DB1BC7EB0A0AB360002B3FF427AFBAF1000FD3D10023D5F800B0D5F804A0009349
:402A40000835C8E7384681E74746C246206871E71A465946019300F0E9FBA2682168019BB8EB0708A2EB03020B44A2602360D5D14846214604F00AFF00289FD1CDF80080EC
:402A8000CCE758460A21524600F086FB002841D001300123CBEB00080093A2E76FF00043434528BF434693FBF2F3676A03FB02F34846E1695A46B84700283FF747AF7DE729
:402AC00062465946CDF804C000F0B0FB2368DDF804C0484663442360214604F0D7FEDDF804C000287FF46AAF674694E7484600F005FC009B824600287FF412AF4846216994
:402B0000FFF7B0FDA3890C2223F080039BB2C9F8002054E701230AF10108009361E74FF0FF30ACE60C23C9F80030A38947E700BF00FCFF7F2DE9F04110F538771AD0884630
:402B400000267D68BC68013D0ED4A389013D012B06D9B4F90E30013302D02046C04706436B1C04F16804F0D13F68002FE9D13046BDE8F0813E463046BDE8F0812DE9F843C4
:402B800010F538761ED0884607464FF000097568B468013D10D4A389013D012B08D9B4F90E30013304D038462146C04749EA00096B1C04F16804EED13668002EE7D14846AB
:402BC000BDE8F883B1464846BDE8F883FF2807D8044B1B681844407800F00800C0B27047002070474C85FF1F004870478885FF1F014B1868704700BFA885FF1F0048704787
:402C00005085FF1F2DE9F04F01F10B05162D83B0064627D935F0070500F1B680A94200F2B38000F067FBB5F5FC7F22D2BC4FE80807EBC003DC689C4200F0BC816368E168A2
:402C400023F0030323445A68A56842F00102E96030468D605A6000F04FFB0834204603B0BDE8F08F102900F28F8000F043FB1025DCE7680A00F08F80042800F24781A8094F
:402C800038304100A64F07EB8101CC68A14206D10CE0002A80F28280E468A14206D0636823F003035A1B0F2AF3DD013801309C493C6901F1080E744500F07181636823F0AE
:402CC00003035A1B0F2A00F35781002AC1F814E0C1F810E066DAB3F5007F80F02D81DB0801EBC3084FEAA30C4A68012303FA0CF3D8F808C01343C4F808C0C4F80C804B6097
:402D0000C8F80840CCF80C408210012494409C4255D8234206D120F003006400234200F10400FAD007EBC008C4468146DCF80C309C4507D135E1002980F24581DB689C451F
:402D400000F02F815A6822F00302511B0F29F2DD1C46DA6854F808CF45F0010941F001081D44C3F804903046CCF80C20C2F808C07D613D61C5F80CE0C5F808E0C5F8048084
:402D8000695000F0B9FA69E7002420460C23336003B0BDE8F08F7E213F2073E723445A68E16851E723445A68304642F001025A60083400F0A1FA204603B0BDE8F08FBC688C
:402DC000636823F00308454504D8C5EB08030F2B00F38C80534BDFF85CA11A68DAF800302A44013304EB080B00F0518102F580520F3222F47F6222F00F02114630460192B0
:402E000000F0FEFCB0F1FF3F8146019A00F04881834500F2EF80444BCB4519681144196000F04381DAF80000DFF808E101301BBFCBEB090B5944CEF80090196019F00701FF
:402E400000F00881C1F10800C1F58051814408314A44C2F30B02C2EB010A51463046019300F0CEFC431C019B00F02D81C9EB0002524442F001021968BC425144C7F80890B2
:402E80001960C9F80420DFF8A0A016D0B8F10F0F40F2EF806268A8F10C0323F0070302F00102E0184FF0050E1A430F2B6260C0F804E0C0F808E000F20A811C4BBC681A6862
:402EC000914288BF19601A4B1A689142626888BF196022F003029542A2EB050301D80F2B04DC304600F008FA0024B7E645F0010243F00103254462603046BD6008346B6028
:402F000000F0FAF9204603B0BDE8F08F142869D9542800F29880280B6E304100B2E600BFAC85FF1FE889FF1FEC89FF1FE489FF1FE089FF1FB889FF1F5A0A042A55D9142A24
:402F400000F2A7805B324FEA420C07EB8C0CDCF80810DFF8B88161457FD04A6822F00302934202D289688C45F7D1CA687B68E260A1609460CC60C7E645F0010742F0010315
:402F80002544676030464D610D61C5F80CE0C5F808E06B60AA50083400F0AEF95EE64B68B2E609F1010919F0030F0CF1080C7FF4BDAE2CE004F108036469A34208BF023015
:402FC0003FF475AE3AE61C461A445168DB6854F8085F41F0010151603046EB609D6000F08BF93BE65B3041004CE69A0938324FEA420CAAE7BC42454B3FF40DAF9C68626847
:4030000022F0030267E7D8F8008098457CD110F0030FA8F1080300F1FF30F4D17B6823EA04037B6064009C423FF6C9AE002C3FF4C6AE234248467FF475AE6400234200F140
:403040000400FAD06EE6B0F5AA7F18D8E80B7730410017E64FF48051FAE6D8F8043092104FF0010C0CFA02F21343C8F804300A467DE70123C9F804304C4600222BE740F2A9
:40308000545398421CD8A80C7C304100FAE51032B3E6542A23D81A0B6E324FEA420C54E7BC68626822F0030215E7CBF30B0000287FF4B8AE4244BB6842F001025A60FCE6FB
:4030C000FC217E20DEE501224FF0000AD3E604F108013046FFF7C6FADAF80010EDE6B2F5AA7F04D8DA0B77324FEA420C2DE740F254518A4204D89A0C7C324FEA420C24E714
:403100004FF0FC0C7E2220E77B688BE7AC85FF1F2DE9F04383B005460A9E1446B2B11F46104B8846D3F80090FFF75EFD41468DE8410022463B462846C847431C03D100229F
:403140008A2332602B6003B0BDE8F083054B1F68FFF74AFD21468DE84100034A28460123B847EAE7BC89FF1F8095000082B049B15AB16BB113780B601278101C18BF01206B
:4031800002B0704701A9002AF3D1104602B070476FF00100F4E700BF830770B4C9B240D0541E002A3FD003788B4218BF431C05D11CE0ECB10278013C8A4217D013F0030F05
:4031C000184603F10103F4D1032C14D884B103788B420BD00519431C02E002788A4205D0AB42184603F10103F7D1002070BC7047204670BC7047024641EA012646EA06465A
:40320000136810467340A3F1013525EA030313F0803F02F10402D9D1043C032C1046EFD8D4E71446D0E71046E0E700BF8842F0B50DD98B1898420AD28118002A54D09A1A49
:4032400013F8014D934201F8014DF9D1F0BD0F2A48D940EA01039B0747D1154600F1100401F1100353F8106C103D44F8106C53F80C6C0F2D44F80C6C53F8086C04F1100474
:4032800044F8186C53F8046C03F1100344F8146CE8D8A2F1100323F00F0302F00F0E1033BEF1030F1944034421D90E4674461D1F56F8047B043C032C45F8047FF8D8AEF1DF
:4032C000040424F0030404342344214402F0030252B1013B0A4411F8014B914203F8014FF9D1F0BD0346F3E7F0BD0346F1E77246EEE700BF704700BF704700BF2DE9F04FBB
:40330000174683B00D46002900F0E280814607F10B04FFF7EFFF55F8043C162C23F00306A5F108084BD810221446A7424CD8964251DADFF8A4B308EB0601DBF80800884260
:4033400000F0D380486820F0010E8E44DEF804E01EF0010F54D120F003003044904280F2BD80DB0700F1908055F8083CC3EB080ADAF8043023F0030300EB030E964549DB16
:403380005746CB688968321FCB60996057F8081FDAF80C30242ACB60996000F23381132A40F2FA802B681B2ACAF808306B68CAF80C3000F23B8108350AF11003EDE024F0D5
:4033C0000704002C2246B0DA0C230020C9F8003003B0BDE8F08F2F46321B0F2A03F0010340D83343C8F804304644736843F0010373604846FFF780FF384603B0BDE8F08F52
:40340000D90741D455F8083CC3EB080ADAF8043023F003033344934236DB5746DAF80C1057F8080F321F242AC160886000F2F580132A40F2F08029681B2ACAF8081069686A
:40344000CAF80C1000F2078108350AF1100229681E4611606968D0465160AB689360DAF80430B9E708EB0401234342F00100C8F804300A4448605368083143F001035360A7
:403480004846FFF7EFF8B4E739464846FFF7BAFB07460028ADD055F8043CA0F1080123F001024244914200F0A680321F242A00F29380132A65D803462A461168196051682E
:4034C000596092689A6029464846FFF7CBF890E7114603B0BDE8F04FFFF794BBCA6889682F46CA600646916076E7416804F1100021F00301314481425ADADB07C4D455F86D
:40350000083CC3EB080ADAF8043023F0030301EB030C60453FF77EAF5746DAF80C3057F8081F321F242ACB60996000F2B680132A40F2A7802B681B2ACAF808306B68CAF85C
:403540000C3000F2B38008350AF110032A681A606A685A60AA689A60C4EB0C030AEB040243F00103CBF808205360DAF80430484603F001031C43CAF80440FFF7BDFE38464E
:403580003BE72B681B2A03606B68436028D800F1080305F1080290E73B462A6876461A606A68D0465A60AA689A60DAF8043013E70B1B08EB040243F00103CBF808205360DA
:4035C00055F8043C484603F001031C4345F8044CFFF792FE284610E72946FFF727FE72E7AB68242A8360EB68C3602BD000F1100305F1100261E750F8042C2F4622F00302F2
:403600001644E9E6294638467646D046FFF70EFEDAF80430E0E63A4619E7294638461E46D046FFF703FEDAF80430D5E6AB68242ACAF81030EB68CAF8143018D010350AF151
:403640001803AAE72A6900F118030261696905F11802416131E7A968242ACAF81010E968CAF814100FD010350AF11802EFE62A690AF12003CAF818206A691835CAF81C20B1
:403680008BE73B4662E729690AF12002CAF8181069691835CAF81C10D9E629463846CDF804C0FFF7C3FDDDF804C055E7AB68242ACAF81030EB68CAF8143003D010350AF199
:4036C000180343E72A690AF12003CAF818206A691835CAF81C2039E7AC85FF1F838903F00903092B01D00020704704F0E5B800BFF8B50C46054610B1836B002B45D0A389B1
:403700009AB2970407D4626E43F4005322F400526266A3819AB200219606616032D4500721D5216B61B104F14003994202D02846FEF798FFE36B002063602063002B3ED191
:403740002369002B4BD0A789BEB2B30720D1226928462260256AE1696369A8470028606009DD0020F8BDD1063ED512072AD443F00403A381E4E7A3891BD0002243F04003A1
:40378000A38162604FF0FF30F8BDFEF733FEB6E7194A01231068A381184906F00906FFF7C9F9092EA781D2D12846214603F0CAFFCDE743F020034FF0FF30A381F8BDA36B0A
:4037C0002360F8BD2846214604F060F80028D9D1A389A06023F00803A0619BB2C7E72846214604F02BFCAEE743F0400309222A604FF0FF30A381F8BDAC930000DD3600000F
:4038000038B5074C0023054608462360FCF740FD431C00D038BD2368002BFBD02B6038BD148AFF1F70B40D785E2D2FD0002216460131431E00F1FF0403F8012FA342FBD1E4
:4038400085B186F0010242554E1C16F8013C2D2B0ED05D2B09D013B11D463146F3E7084670BC7047481E70BC7047304670BC70474C785D2C0FD0A5420DDC023143190135AA
:40388000AC4203F8012FFADC0236DEE701224D7816460231CDE731461D46D4E7004870470000C07F0EB4F0B506464FF6FF7E9CB021AC54F8042B0D4923466FF00045086842
:4038C0004FF4027702A9029606960194ADF816E0ADF814700495079501F008FB029B00221A701CB0BDE8F04003B070474885FF1F10B50C46B1F90E1005F062F8002803DB38
:40390000236D0344236510BDA38923F48053A38110BD00BF2DE9F0410C4689891D46CB051646074606D5B4F90E100022022304F071FBA18921F48051A1813846B4F90E1046
:4039400032462B46BDE8F04102F0F2BD10B50C46B1F90E1004F05EFBA389421C0EBF23F4805343F480532065A38110BDB1F90E1002F0A6BE2DE9F0410F46904604F0C4FEB4
:4039800004460D46B8F1000F11D0C7F30A53C3F16B03002B0BDD1B0503F17F55002405F5401522462B46FDF783F9BDE8F08120462946BDE8F08100BF2DE9F04F0F469FB028
:4039C00083460B4600200021CDE904010392002219971A921C4613F8016B2D2E00F2F080DFE816F02E00EE00EE00EE00EE00EE00EE00EE00EE00DD00DD00DD00DD00DD004C
:403A0000EE00EE00EE00EE00EE00EE00EE00EE00EE00EE00EE00EE00EE00EE00EE00EE00EE00EE00DD00EE00EE00EE00EE00EE00EE00EE00EE00EE00EE004400EE00DA0095
:403A4000039B4FF000084FF0000953B100230693039B1F60069B23B1414609F1004388469946404649461FB0BDE8F08F00230693631C19936678002EE2D0302E1C4600F0F9
:403A8000A480002308940A93A6F130034FF0000A092B55462346544619D8082CC8BF0AEB8A0A05EB850203F1010306EB42021993C4BF06EB4A06A6F1300A1E78D8BFA2F1C7
:403AC0003005A6F13002092A04F10104E5D958460793FFF793F8D0F800805846FFF78EF80068FDF7BDFC079B02464146184604F07BFF8046002800F0E48000208446864678
:403B0000A146652E73D0452E71D00023B9F1000F47D0B9F1100FC846CCEB03032846A8BF4FF010080793FDF74DF8002C08BF4C46B8F1090FCDE9040113DD764B03EBC80323
:403B400053E91223FDF7B4F8064650460F46FDF739F802460B4630463946FCF7F7FECDE90401B9F10F0F00F3D780079B002B00F0A580079B40F36785162B00F3D284DDE9A2
:403B800004230798634901EBC001D1E90001FDF78FF8804689460DE00123069368E7199318E718B90A9B002B00F0A1824FF000084FF00009039B002B3FF44CAF199F47E757
:403BC0000023302E06937FF45CAF6378582B00F0A483782B00F0A183013419942678302EFAD0002EE2D0012308940A934CE7B9F1000F4ED0199F7B1C19937E782B2E00F0D8
:403C00006D822D2E00F064824FF00008A6F13003092B324600F20282302E06D1199B013319931E78302EFAD03246313A082A3FF66CAF199B19460A46013219920793A6F1D3
:403C400030034E78A6F1300109290BD80132199203EB830306EB43031678303BA6F130010929F3D90799521A082A00F3518444F61F629342A8BF1346C8F1000253404344FB
:403C8000B9F1000F7FF445AF8BE74FF0000C4FF0010E002840F028820A9B002B3FF4D0AE8146A7E76FF0004305934FF0FF3304932B0742BF059B43F000430593DDE904898B
:403CC00078E75846FEF79AFF0068FDF7C9FB199B1A1819921E5C002C40F0E881302E204605D10132199216780130302EF9D0A6F13103082B00F2A082199B303E089300F12B
:403D0000010C4FF0010905EB850506EB45050020DAE100BFD0960000079BC8EB09089844B8F1000F40F39A8318F00F000AD0DDE90423C14901EBC001D1E90001FCF7B8FF34
:403D4000CDE9040138F00F0640F0288200230A930095089922464B46584604F053FA1090002800F03B83079A0021002AC2F10003A8BF0B460F460C9322EAE27307910B9348
:403D8000109C5846616804F0C9F98246002800F0A582DDE9042321469046994622690C31023292000C30CDE90889FDF749FA1BA81CA98DE8030042464B46584604F02EFD0C
:403DC0001A90002800F08B825846012104F0B4FA0746002800F082821B9A002AC0F212810C9B0B9903EB02080A981C9B121A1A446FF47F708242C3F1360380F2EC80801A64
:403E00001F28A3EB000300F30281012500228540119208EB0309C1454A46A8BF4246CE180A9B1E44B2421346A8BF3346002B04DDC3EB0909F61AC3EB08080C9BB3B13946C2
:403E400058461A4604F022FB0746002800F04682584639461A9A04F079FA0446002800F03D8258461A9904F081F91A94B9F1000F08DD4A4658461A9904F058FB1A900028A8
:403E800000F02D820B9B43B1514658460B9A04F0FDFA8246002800F02182002E08DD51463246584604F042FB8246002800F01682B8F1000F08DD39464246584604F036FBB1
:403EC0000746002800F00A8258461A99524604F0A9FB0790002800F00182079A0026D3683946D6600D9304F079FBB042C0F2208400F0DD830798394604F0E4FC00224FF074
:403F0000804304460D46FDF74FF9002867D00D9B002B00F0A280B146484DDDF814C0DFF81C810024464E474B0CEA06069E4200F027820A9B23B3B6F1D46F21D83CA3D3E93A
:403F4000002348464146FDF72FF9B0B14846414604F094FE8146002800F02683FCF732FE814688460D9B002B40F0198308F10043CDF850901593DDE9144505F1D6639D1B83
:403F8000DDE9080104F0C0FB02460B4620462946FCF78EFE02460B46DDE90801FCF7D6FC0C46CDE904010A9B23B9254B23409E4200F01F8258461A9904F0D8F8584651464D
:403FC00004F0D4F85846394604F0D0F85846079904F0CCF8D4E600221192012519E71A4B204629460022FCF763FE0D9B8146884673BB01F100430E900F93DDE90E45DDF80F
:4040000014C08FE70B9BDDF83080991AECE60F480125801A05FA00F21192FAE619970023B9F1000F7FF475ADBBE500BFAFF300800000C0FFFFFFDF41D09600000000F03FE7
:404040000000F07F0000E07F0000E03FE3FBFFFF02460B46CDE90E23CFE7049BDDE90401002B40F0DE80C1F313038C46002B40F0DC801191204629460022B54BFDF78AF8BC
:40408000DDF844C0002840F09883B24B204629460022FCF70DFE8146884601F10043DDF844C016901793DDE916453BE74046A146C446A6F13002092A13D8431C1646002A49
:4040C00040F04D821846199B5A1C19925E78F0E74FF00108BB1C1993BE7897E54FF00008F8E74FF0010E0CE54FF0000982E5BEF1000F7FF4A5AC493E252E3FF6A1AC01A3CE
:4041000053F826F083420000413A0000413A0000413A0000413A00004B420000413A0000413A0000413A0000413A0000413A0000413A0000413A0000413A0000413A00008D
:40414000413A0000413A0000413A0000413A0000413A0000413A0000413A0000413A0000413A0000413A0000413A0000413A0000413A0000413A0000413A0000413A00008F
:40418000413A000083420000413A0000413A0000413A0000413A00004B420000B6F59A7F00F31C813611012EDFF8D08140F32383DDE9040147464FF0000A16F0010F0AF1C9
:4041C000010A4FEA660603D0D7E90023FCF770FD012E07F10807F0D1CDE90401059B08EBCA08A3F154730593DDE90423D8E90001FCF75EFD21F000431B0D574A1B059342E0
:40420000CDE9040100F2EA80A2F58012934240F2CF82524B059300230A934FF0FF33049396E5012800F0C3818C4600244C4D4FF00009DFF81C8175E6652E3FF426AD4FF093
:404240000009CC464FF0010E5DE41999454809E011F8013FA3F14104192C98BF203393427FF4EEAB10F8012B002AF1D14B1C19934B78282B00F0FD823B4B059300230493EA
:404280001CE5199A394809E012F8013FA3F14104192C98BF20338B427FF4D2AB10F8011B0029F1D119921546314809E012F8013FA3F14104192C98BF20338B4240F0988271
:4042C00010F8011B0029F1D101321992294B059300230493F2E4013140F0B8821A98254B0022059322230492CBF80030DDE904890146584603F03AFF5846514603F036FF2E
:404300005846394603F032FF5846109903F02EFF5846079903F02AFF4CE4069A1AAB01920093584619A9144A1BAB03F027FB10F0070605463FF43AAC062E40F04781013455
:40434000002319944FF000084FF00009069331E40000F03F0000E03F0000A07CFFFFEF7F0000F0BF109500000000F8FF04950000089500000000F07F149500009897000092
:40438000ACF154730593DDE904231046194604F0BBF902460B4620462946FCF789FC02460B46DDE90401FCF7D1FA21F000431B0DB34A1B059342CDE90401DDE90801CDE901
:4043C000120140F2A980AF4B139A9A4200F0EB81AC4B05934FF0FF330493EBE5AA4B0022059304922223DDE90489CBF80030FFF7E1BB4146484604F019FCFCF7F3FB0B4657
:40440000024641464846FCF79FFA0D9B8046894683B9049B73B9C4F313045CB992A3D3E90023FCF7B7FE00283FF4C4ADDDE904891A985DE78EA3D3E9002340464946FCF783
:40444000A9FE0028F2D18CA3D3E9002340464946FCF7BEFE00283FF4ADADE7E73FF476ACC8F1000717F00F020AD0DDE90401874B03EBC203D3E90023FCF744FDCDE9040130
:404480003F113FF463AC1F2F39DC17F0100300F0E7816A23002FD8BF0A9314DDDDE904017B4E0A9317F0010F4FEA670703D0D6E90023FCF7FDFB002F06F10806F2DC0A9B7E
:4044C000CDE9040193B1DDE90401C1F30A53C3F16B03002B0ADD1F2B40F3E8810022342B049240F3EB814FF05C730593DDE9040100220023FCF744FE00283FF429AC2223B1
:40450000CBF800304FF000084FF00009FFF752BB44F61F63FFF7B0BB059B03F15474059441E5079AC9F125039A423FF7F5ABDDE90423564CC9F10F0904EBC901D1E90001B4
:40454000FCF7B6FB079BC9EB030904EBC904D4E90023FCF7ADFB80468946FFF72BBB012B9C4414D0484402E05D00814510D009F1010909F1FF33082B05EB8503F4DDB9F1D6
:40458000100FDCBF0AEB8A0A4FEA4A0AEDE74846082800F101097FDC199BFFF7B4BB4A464346CDE91423E6E4DFF8E880DAE4DDE904239C46002B7FF438AE2223CBF80030D2
:4045C0001A984FF000084FF0000991E61A9A3AB11CA8352104F0A2F958461A9903F0C6FD1B9B062E3FF664AB01A252F826F000BF3D46000025460000194600000D46000024
:40460000A53C0000254600003D4600001E4B059300230493FFF74CBB1C9B04931D9B0593FFF746BB1D9A1C9903F2334322F4801242EA035304910593FFF73ABB002305938A
:404640000493FFF735BB1633FFF666ABDDE90401079A0E4BA3EBC203D3E90023FCF752FC80468946FFF7A6BA9535A094FFFFCF3F9535A094FFFFDF3F35E5AF350000E03F0A
:40468000FFFF9F7CFFFFEF7F0000F07FD0960000289500000000F03FB9F1100FD7BF0AEB8A0A199B199B02EB4A0A00200CE50D9EAE46DDE90889002E00F08880DDE90445E7
:4046C000824BC5F3130199422A4600F0A980119B002B00F08880059A13420DD0DDE904010A9A002E00F08A80FFF744F942464B46FCF72CF9804689460A9BBBB1744B404637
:40470000139300231293DDE912234946FCF7D0FA02460B4680468946CDE9042331B9049B23B922231A98CBF80030E1E51A98DFE50D9EDDE90889002EDED1049B002BDBD1D9
:40474000DDE90401C1F313030C46002BD4D1059B23F000431B0D1B05B3F1D66FCCD9079A536913B91369012BC6DD07990122584603F0DCFE3946079003F030FF0028BBDD1C
:404780000A9B002B40F08780524B2340A3F580136FEA13536FEA035305934FF0FF330493DDE90489A8E7129B01337FF411AE95E501F154730593FFF7C9BA474B0022CDE916
:4047C0001623DDF83490DFF81C816CE4DDE90401C1F313030C46002B7FF479AF049B002B7FF475AFCCE7049A1EEA020F84D075E76B1C19936AE54FF0000AEFE4FFF7BAF8B5
:4048000002460B4640464946FCF79EF80022002380468946FCF7B4FC00287FF4CEAE6BE70A9B049913B32B4B2B40B3F1D46F1DD81B0DC3F16B034FF0FF3000FA03F3994213
:404840007FF445AF254B9A423FF445AD214B134003F58013059300230493DDE904894BE7002FD8BF0A933FF719AE3FE64FF0FF33E5E719A81A491CAA03F00AFB05287FF4FB
:40488000FBAC1D9B43F0FF4343F4E00305931C9B0493FFF713BA0F4B2340B3F1D66F3FF775AFB3F15C7F3FF729AF86E64FF0FF3202FA03F3049A1A40049217E6203B4FF0E1
:4048C000FF3202FA03F30B4005930FE6FFFF0F00000050390000F07F0000E0BFFFFFEF7FF09400000000E03F2DE9F04F444C83460E46D4F800E000E02646344614F8015B2E
:404900000EEB0500407800F0080000F0FF080028F2D12D2D4BD02B2D04BF7578B41C1BB1102B60D09A4603E0302D54D00A239A46B8F1000F14BF4FF000406FF00040B0FBBE
:40494000FAF90027BC460AFB19000CE0303DAB4219DD7E1C05D0CC4524D821D00AFB0C5C012714F8015B0EEB0506767816F0040FECD116F0030606D0012E0CBF37265726D6
:40498000AD1BAB42E5DC7B1C16D0C8F100008CEA000040444AB107B1611E1160BDE8F08F8542DBDD4FF0FF37DBE7BDE8F08FB41C75784FF00108B2E7B8F1000F4FF02203F6
:4049C00014BF4FF000406FF00040CBF80030002AE2D1BDE8F08F237803F0DF03582B09D008239A46A4E7302D9CD1207800F0DF00582897D14FF0100A65785346023497E7D4
:404A00004C85FF1F2DE9F04F0C4687B004916F49019205909B462246D1F800A000E02A46154615F8014B0AEB04035B7803F0080303F0FF01002BF2D12D2C00F092808C46A3
:404A40002B2C04BF5478951CBBF1000F72D0BBF1100F00F0A3805E46F717BCF1000F72D14FF0FF386FF000494046494632463B46CDF80CC004F072F9404602923B463246E4
:404A8000494604F06BF9002200234FF0000EDDF80CC0DDF808801BE0303CA3452DDDBEF1FF3F13D0994208BF904253D38B4208BF82424DD002FB07FE06FB03EEA2FB06238D
:404AC0007344121943EBE4734FF0010E15F8014B0AEB040999F8019019F0040FDCD119F003090AD0B9F1010F0CBF4FF037094FF05709C9EB0404A345D1DCBEF1FF3F35D0E6
:404B00006046DCF100064FEAE07161EB410772407B4012EB0C024B410199002953D0BEF1000F1AD110461946049D019B1D6007B0BDE8F08F302C27D00A2600274FF00A0B03
:404B4000BCF1000F8CD04FF000084FF000498BE74445AFDD4FF0FF3EB8E710461946013DE3E7951C54784FF0010C6DE7BCF1000F19D14FF0FF306FF00041059A22231360C7
:404B8000019B002BEBD1D2E72B7803F0DF03582B12D0082600274FF0080B5EE7302C06D01026002759E700204FF00041E5E72B7803F0DF03582BF3D16C781026002702357E
:404BC0004FF0100B49E710461946B0E74C85FF1F2DE9F04F494C0F46D4F800E000E027463C4614F8015B0EEB0506767806F0080606F0FF08002EF2D12D2D51D02B2D04BF54
:404C00007D78BC1C5BB1102B5BD04FF0FF39B9FBF3F903FB09FB9A466FEA0B0B07E0302D43D00A239A46DFF8D8904FF0050B0027BC460CE0303DAB4219DD7E1C05D0CC45F6
:404C400024D821D00AFB0C5C012714F8015B0EEB0506767816F0040FECD116F0030606D0012E0CBF37265726AD1BAB42E5DC002F11DBC8F100008CEA000040444AB107B1D2
:404C8000611E1160BDE8F08F5D45DBDD4FF0FF37DBE7BDE8F08F222303604FF0FF30EDE7BC1C7D784FF00108ACE7237803F0DF03582B0ED008239A464FF0070B6FF0604964
:404CC000B5E7302D0FD09A464FF00F0B6FF07049ADE74FF0100A657853464FF00F0B02346FF07049A3E7267806F0DF06582EF0D04FF00F0B6FF070499A4698E74C85FF1F79
:404D0000999999192DE9F04F8B46764987B09246049099465A46D1F8008000E02A46154615F8014B08EB04035B7803F0080303F0FF00002BF2D12D2C00F097802B2C08BF12
:404D40005478039008BF951CB9F1000F1DD0B9F1100F00F09F804E46F7174A463B464FF0FF304FF0FF3103F0F9FF4A46059000913B464FF0FF304FF0FF3103F0EFFFDDF899
:404D800014C00292604600990AE0302C72D00523554902934FF099300A2600274FF00A09002200234FF0000ECDE900671DE0303CA1452FDDBEF1FF3F15D0994208BF904268
:404DC00046D38B4208BF82423FD0019E02FB06FE009E06FB03EEA2FB06237344121943EBE4734FF0010E15F8014B08EB040C9CF801C01CF0040FDAD11CF0030C0AD0BCF16B
:404E0000010F0CBF4FF0370C4FF0570CCCEB0404A145CFDCBEF1000F1FDB03990E46CF1708463946764267EB470772407B4080185941BAF1000F05D0BEF1000F0BD0013D6B
:404E4000CAF8005007B0BDE8F08F029EB442BCDD4FF0FF3EC7E75D46F2E7049A222313604FF0FF304FF0FF31E3E70123951C5478039369E72B7803F0DF03582B15D00723E2
:404E800002934FF0FF306FF06041082600274FF0080985E7302C16D00F234FF0FF306FF070411026002702937AE70F2302936FF070436C784FF0FF3C02350093102600273B
:404EC0004FF010095EE72B7803F0DF03582BECD00F2302934FF0FF306FF07041102600275EE700BF4C85FF1F999999192DE9F04FC1B089460A920E930890FDF77FFE03689F
:404F000018461793FCF7ACFAB9F80C3018901C0604D5D9F81030002B01F0C28030AF3C464E4600231393169319930B93259324932397149315930A9D2B78002B00F0A9801A
:404F4000252B02D1A5E0252B03D015F8013F002BF9D10A9BEB1A73B1249A259901320A981944072A84E809002591249272DC08340B9A1A440B922B78002B00F0E287002322
:404F80001A46691C6D788DF86F300C9307934FF0FF3A4B1CA5F12001582900F2EA83DFE811F06D02E803E803D102E803E803E803E803E803E803BC020D02E803F401110232
:404FC000E803D8027B027B027B027B027B027B027B027B027B02E803E803E803E803E803E803E803E803E803E8038A02DF02E803DF02E803E803E803E803CB03E803E803D0
:405000002F03E803E803E803E803E8034D03E803E8036703E803E803E803E803E803E803E803E803E803E80382032B02DF02DF02DF02CA022B02E803E803B202E803D20351
:40504000FB0119037402E803A303E8037A00E803E80347020898314623AA079303F00EFD50B93C46079B83E70898314623AA03F005FD002800F08581B146B9F80C3013F09C
:40508000400F0B9B18BF4FF0FF33184641B0BDE8F08F0A9D6FE70A93079B980640F1D7820E9B03F1070929F0070303F10802D3E900890E92012300229446CDF844A08DF8DB
:4050C0006F20BAF1000F03DB079A22F08002079258EA090240F06F83BAF1000F00F07484012B00F07283022B00F0C28439464FEAD80242EA49724FEAD90008F007038146E2
:405100009046303358EA090201F8013DEFD1079A1091D20700F17F857B1A0D930D9A53469245B8BF1346099300231293BCF1000F02D0099B01330993079B13F002030F9314
:4051400002D0099B02330993079B13F0840940F02F830C9B099AC2EB0308B8F1000F40F32783B8F1100F2599249ADFF870A529DD53464FF0100BC246A8461D4606E0AAF13A
:40518000100ABAF1100F04F1080417DD01321031072A2591249284E82008F0DD0898314623AA03F06BFC00287FF466AFAAF1100ABAF1100F3C462599249AE7DC2B4645467A
:4051C000D0469A46013208EB010B072ACDF894B02492C4F800A0C4F8048000F3DE829DF86FC00834BCF1000F0FD0249B0BF1010B01330DF16F010122072BCDF894B024938F
:4052000084E8060000F3FD8308340F9B73B1249B0BF1020B01331CA90222072BCDF894B0249384E8060000F3F9830834B9F1800F00F03483119B0D9AC2EB030ABAF1000FE4
:405240003CDDBAF1100F249ADFF894942BDD49465B46A9464FF01008DDF820B00D4606E0AAF1100ABAF1100F04F1080417DD01321033072A2593249284E82001F0DD5846B1
:40528000314623AA03F0FAFB00287FF4F5AEAAF1100ABAF1100F3C46259B249AE7DC9B462B464D4699460132D344072ACDF894B0249284E8000600F398830834079BD90508
:4052C00000F18F82249B0D990133109A8B44072BCDF894B022606160249300F3B8830834079B5A0741D50C9B099A9D1A002D3CDD102D249BDFF8E4A323DD4FF010085A464A
:40530000DDF8209004E0103D102D04F1080417DD01331032072B25922493C4F800A0C4F80480F0DD4846314623AA03F0A7FB00287FF4A2AE103D102D3C46259A249BE7DC67
:4053400093460133AB44072BCDF894B02493C4F800A0656009DD0898314623AA03F08EFB00287FF489AEDDF894B00B9B099A0C998A42ACBF9B185B180B93BBF1000F7FF4D6
:4053800073AE002324933C46D5E51946079840F0040007901D78FCE50A93079B13F0200300F038810E9B03F1070929F0070303F10802D3E900890E9200237CE61D7819463D
:4053C0002B22E6E51D78591C2A2D00F0E587A5F1300009280B464FF0000A3FF6DBAD13F8015B0AEB8A0A00EB4A0AA5F130000928F5D94AEAEA7ACDE50A93079B8DF86F20F9
:40540000980662D50E9B03F1070929F00709D9E9002309F10801904699460E91002A73F1000364DB9DF86FC0CDF844A0012348E60A93A74B8DF86F201693079B9B0640F136
:4054400020810E9B03F1070929F0070303F108020E92D3E90089079BD90740F1228158EA090300F01E81079A302342F002028DF870308DF87150079202231CE6002A40F0F6
:40548000E5841D781946202283E5079941F0200107911D7819467CE5A5F13000002113F8015B01EB810100EB4101A5F130000928F5D90C916EE50A93079B8DF86F2043F0E2
:4054C00010030793079B98069CD4079BD90640F1C1840E9A13461B6804320E924FEAE3791A4698464B46002A73F100039ADA4FF02D0CD8F1000869EB49098DF86FC0CDF82D
:4055000044A00123DDE51D7807996C2D00F0258541F01001079119463BE50E9D296808460C912946002801F10401C0F21D850E911D7819462DE5079941F0400107911D78F3
:40554000194626E5079941F0010107911D7819461FE5079941F0800107911D78194618E50A93079B8DF86F2013F0080F0E9BD34603F1070900F0378429F0070303F1080284
:405580000E921A685B681492159315991498FBF7ABF901281599149840F00B8400220023FBF7F8FD002840F039869DF86FC0079B484A23F0800307931346DFF828E10321BE
:4055C000472DD8BF734600200991119010930D911290ABE50E9907980A9330230A688DF870303B4B782540F002000431169307900E9190464FF000098DF8715002235AE51B
:405600000A93079B43F010030793079B13F020037FF4C8AE079A12F0100240F00A83079B13F0400300F005830E9913460A460432B1F800804FF000090E923CE50A93079BD1
:4056400043F010030793079B98063FF529AD079BD90600F1F782079B5A0640F1F3820E9A4FF00009B2F80080043201230E9222E50A93194B8DF86F201693079B9B063FF51D
:40568000E0AE079BD80640F1BB830E9A13461B6804329846079B0E92D9074FF000093FF5DEAE022307E50E980A93026800238DF89820024601219C4604328DF86F30119343
:4056C000129326AB09910E920D91109334E500BF849500006495000070950000A495000050950000609500000E9A0A9313684FF0000B10938DF86FB002F10409002B00F04B
:405700005885BAF1000F1098C0F2EA8459465246FDF742FD002800F08985109BCDF844B0C31A0D93CDF8389023EAE3730993CDF848B09DF86FC0F9E4079941F0080107913D
:405740001D78194625E40A93079B8DF86F209A0640F165830E9A134604330E930B9B11684FEAE3791A4698464B46C1E90023FFF7E2BB0A938DF86F20002D00F0E28300230E
:4057800001229C468DF86F301193129326AB09928DF898500D921093CEE40898314623AA03F06CF900287FF467AC3C469DF86FC0DDF894B016E5012B7FF495ACB9F1000FCD
:4057C00008BFB8F10A0F80F006820DF5807B08F130080BF8418DCBEB07030D93CDF840B09CE4652D40F3A0801498159900220023FBF7C6FC002800F05481249BC149013372
:405800000BF1010B0122072BCDF894B0249384E8060000F33E8308341D9B139A934203DB079BDA077FF55CAD249B18990133179A8B44072BCDF894B022606160249300F385
:405840001A840834139B5D1E002D7FF749AD102D249BDFF8B49240F3EF804FF010085A46DDF820A004E00834103D102D40F3E38001331032072B25922493C4F80090C4F8E7
:405880000480F0DD5046314623AA03F0F7F800287FF4F2AB3C46259A249BE5E70C9B099AC2EB030ABAF1000F7FF7C4ACBAF1100F249ADFF854922BDD49465B46A9464FF088
:4058C0001008DDF820B00D4606E0AAF1100ABAF1100F04F1080417DD01321033072A2593249284E82001F0DD5846314623AA03F0C5F800287FF4C0ABAAF1100ABAF1100FB8
:405900003C46259B249AE7DC9B462B464D4699460132D344072ACDF894B0249284E8000600F33A82083485E4139B249D012B40F3FC81013510990BF101030122072D2593A7
:4059400021602495626000F30E8208341899013503EB010B179B072DCDF894B024952360616000F30C8208340023149815990022FBF706FC139B002840F0E380109A013B00
:40598000013501329B44072D22602495CDF894B0636000F313810834199A013593441FAB072DCDF894B02495626023607FF797AC0898314623AA03F061F800287FF45CAB51
:4059C0003C46DDF894B08BE4002B4CD1079BD80749D50DF5807B30230BF8413DCBEB07030D93CDF840B0FFF799BB0898314623AA03F044F800287FF43FAB3C46DDF894B053
:405A00005CE40898314623AA03F038F800287FF433AB3C46DDF894B0FFF7F7BB0898314623AA03F02BF800287FF426AB3C46DDF894B0FFF7FBBB93460133AB44072BCDF8C3
:405A400094B02493C4F8009065607FF748AC0898314623AA03F012F800287FF40DABDDF894B03C463CE4CDF834A01097FFF756BBBB4616984FEA181343EA09734FEA19115B
:405A800008F00F0289469846835C0BF8013D58EA0903EFD15B46CDF840B0FB1A0D93FFF73DBB1D9D002D40F30082139A129913468A42A8BF0B461D461099002D01EB020A07
:405AC0000CDD0A46249BAB440133072BCDF894B084E82400249300F348830834129B002DA8BF5B1B002B1D4640F3C180102D249BDFF8149040F3C0815A464FF01008DDF89F
:405B000020B008E0A0950000509500000834103D102D40F3B08101331032072B25922493C4F80090C4F80480F0DD5846314623AA02F0A4FF00287FF49FAA3C46259A249B9F
:405B4000E5E703F1FF38B8F1000F7FF725AFB8F1100FDFF8489525DD5B464FF0100ADDF820B006E0A8F11008B8F1100F04F1080417DD01351033072D2593249584E800062B
:405B8000F0DD5846314623AA02F078FF00287FF473AAA8F11008B8F1100F3C46259B249DE7DC9B460135C344072DCDF894B02495C4F80090C4F804807FF7EDAE089831460E
:405BC00023AA02F05BFF00287FF456AADDF894B0249D3C46E0E6BB46CDF824C0404649460A22002303F0BAF83032404649460BF8012D00230A2203F0B1F88046894658EAB2
:405C00000903EBD15B46FB1ADDF824C0CDF840B00D93FFF783BA302B109B3FF43EAF013B1A461093BA1A30230D9201F8013CFFF775BA0E994FF000090A6804310E91904614
:405C4000FFF739BA0E9901230A6804310E9190464FF00009FFF72FBA0898314623AA02F00DFF00287FF408AA3C46DDF894B0109A12991D9B0A449046139A934246DB079AEE
:405C8000D00743D4139AC8EB0A05D31A9D42A8BF1D46002D0CDD249AAB440132072ACDF894B0C4F800806560249200F396820834002DB4BF1D465D1B002D7FF711AB102DAC
:405CC000249BDFF8D8937FF7B7AE4FF010085A46DDF820A004E00834103D102D7FF7ABAE01331032072B25922493C4F80090C4F80480F0DD5046314623AA02F0BFFE0028A3
:405D00007FF4BAA93C46259A249BE5E7249A1898013217998344072ACDF894B021606060249200F339820834ACE7079BD9073FF500AE0135109A0BF1010B0123072DCDF892
:405D400094B02260249563607FF725AE0898314623AA02F093FE00287FF48EA93C46DDF894B0249D18E60898314623AA02F086FE00287FF481A93C46259B249DE6E5089878
:405D8000314623AA02F07AFE00287FF475A93C46DDF894B0249DE7E50898314623AA02F06DFE00287FF468A93C46DDF894B0FFF741BAFAF799FD002840F0DD80B44AB54BA1
:405DC0008646472DD8BF1A4611900798032120F0800009910790CDF848E010920D919DF86FC0FFF7A3B929F00709D9F800301493D9F80430159309F108030E93FFF7C5BB6A
:405E0000079B0E9A13F0400F13463FF440AC0433B2F800804FF000090E93FFF71CBB079BDB060BD4079B5D0608D50E9A136804320E92BDF82C201A80FFF77DB80E9A136811
:405E400004320E920B9A1A60FFF775B819461D78FFF79FB8079B0E9A13F0400F13463FF43AABB2F9008004334FEAE8790E9342464B46FFF7D3BA93460133AB44072BCDF890
:405E800094B02493C4F8009065603FF7E5AE0834EDE60898314623AA02F0F0FD00287FF4EBA83C46DDF894B0B6E4249B7A4901330BF1010B0122072BCDF894B0249384E899
:405EC000060000F3FD8008342DB9139B1BB9079BDB077FF505AA249B18980133179A0BEB0001072B259122606060249300F3F48104F108026D42002D40F30781102DDFF8A3
:405F00009C9140F33E811024DDF8208004E00832103D102D40F3358101331031072B25912493C2F800905460F1DD4046314623AA02F0A4FD00287FF49FA83A462599249BEC
:405F4000E6E7259BB146002B3FF497A80898314623AA02F093FDFFF790B841F0200107915D78591CFFF715B80C980E9140420C901946FFF70BBA25F02003BAF1FF3F0D9329
:405F800000F0AB80472B05D1BAF1000F14BFD3464FF0010B079B43F480731193159BB3F1000A149B0993B7BF5346002303F1004A2D23662D0F9300F0B980462D00F0B680BD
:405FC0000D9B0220452B14BFD9460BF101091DA98DE8010202911EA821A90390099A53460491089800F018FC672D109002D0472D40F0AC80079BDB0740F19681109B03EBCB
:4060000009080998514600220023FBF7B9F8002840F00A81219B984506D930215A1C21921970219B9845F9D8109A9B1A13930D9B472B1D9B00F0EB80652D40F30581662D57
:40604000129300F06481139B129A934200F35181079BD90700F1888122EAE2730D920F9A002A40F0C9800993119B9DF86FC007931192FFF75BB80898314623AA02F0FEFCC8
:4060800000287EF4F9AF3C46DDF894B0FFF7DABB6C95000068950000A09500005095000008984021FCF7AEFDC9F80000C9F81000002800F086814023C9F81430FEF72EBFC6
:4060C0000898314623AA02F0D9FC00287EF4D4AF3C461D9DDDF894B0F6E64FF0060B59E7CDF844B0FBF7BCF9CDF838900D900346FFF71ABB0898314623AA02F0BFFC0028C0
:406100007EF4BAAF3A462599249B139C013301EB040B1099072BCDF894B02493116054603FF795AC02F10804FFF7DAB803201DA98DE8010802911EA821A90390099A534692
:406140000491089800F068FBD9461090109B03EB09080D9B462B7FF454AF109B1B78302B00F0E4801D9B98444BE70898314623AA02F084FC00287EF47FAF3C46DDF894B033
:40618000ACE401332944072B25912493C2F800905560AFDC0832B8E70898314623AA02F06DFC00287EF468AF3C461D9BDDF894B068E55346062B28BF06230D9323EAE3733F
:4061C000DDF840C00993844BCDF83890CDF844C0CDF848C01093FEF7A9BF0898314623AA02F04CFC00287EF447AF1D9B139ADDF894B0D31A3C465BE50993119B4FF02D0CA1
:40620000079300238DF86FC01193FEF792BFDA1C19DB9B4517DB1293672514E72D239C468DF86F30FFF7C3B94346FDE62AEAEA731190CDF8389012909DF86FC00993CDF881
:4062400034A0FEF773BF023D013B002B1D93BABF5B422D222B22092B8DF87C508DF87D207ADD0DF18B0001465C4A82FB032EDA17C2EBAE0E0EEB8E02A3EB42027346303229
:40628000092B01F8012DEFDC0A4630335FFA83FE02F801ED904240F29B800DF17E020B4601E013F801EB834202F801EBF9D123AB5B1A0DF17E0213441FAA9B1A139A199319
:4062C000012A13440D935EDD0D9B002201330D93129223EAE373C2E60898314623AA02F0CDFB00287EF4C8AE3A461D9D2599249B00E6129B002BD8BFC3F10208139BC8BF47
:406300004FF0010843440D9323EAE373A7E6002B30DDBBF1000F17D1079BDB0714D4129A22EAE2730D929AE6219B7DE60998514600220023FAF724FF00287FF413AFC9F1C4
:4063400001031D9398445CE6129B0BF1010843440D9323EAE37382E6303330228DF87F308DF87E2020ABA7E7129B01330D9323EAE37374E6BBF1000F1DD1079BD8071AD4EC
:4063800001230D936BE6079B13F001039CD112930D9B23EAE37362E60E9D2846D5F800A00430BAF1000F5D780E90BEF6F2AD4FF0FF3AFEF7EEBD0BF102030D9323EAE37364
:4063C0004DE6089A0C2313604FF0FF30FEF75EBE0DF17E0370E700BF98950000676666662DE9F0410C46096B04F14003994214D0666B77003A46FCF781FF054648B300EBDC
:406400000608324640462946FAF71AFFC4F80080256367630020BDE8F0814FF48061FCF7F1FB0346A8B194F842204FF480612063616380F8FF2394F8411000F2FD3280F805
:40644000FE1394F84010002083F8FD132260BDE8F0814FF0FF30BDE8F08100BFF8B54B1C0D4633D01446064610B1836B002B30D0A3899F0405D4626E43F4005322F4005255
:40648000626623F020039BB29AB25007A38106D4D1061BD5120738D443F00403A381236BEDB2CBB16268636B9A4209DA236828465A1E226003F8015C636801336360F8BDE4
:4064C00030462146FFF78CFF0028EFD04FF0FF30F8BDFBF78FFFCBE7236922682BB1934203D212F8010CA8421CD02346676804F140060321A263E76326636163012203F828
:40650000425F284623606260F8BD3046214601F0BDF90028DAD1A389A06023F00803A0619BB2B9E76368013A013384E80C00F8BD70B5084C06460025084611461A462560E8
:40654000F9F73CFE431C00D070BD2368002BFBD0336070BD148AFF1F38B52F4B054618680C4610B1836B002B36D0A28993B218070CD52069A8B113F001021ED06369002200
:406580005B42A361A260F0B1002038BDD9063AD5580724D4206942F00803A3819BB20028E9D103F42072B2F5007FE4D02846214601F044FDA3892069DDE7990758BF6269BF
:4065C000A2600028E0D1A3891A06DED543F04003A3814FF0FF3038BDFBF70CFFC5E7216B49B104F14003994203D02846FCF73AF8A28900232363206922F02402002392B220
:4066000084E80900C7E742F0400209232B604FF0FF30A28138BD00BF4885FF1F2DE9F047254C064625688846D5F8484192469946C4B360681F2817DC411C76B104EB8003FB
:40664000C3F888A0D4F88851012282401543022EC4F88851C3F808911ED0831C6160002044F82380BDE8F087144B03B34FF4C870AFF300800446D0B1D5F84831002784E87D
:4066800088003846C5F848410121C4F88871C4F88C71002EE1D0D1E7D4F88C311A43C4F88C21DAE705F5A674C5F84841C1E74FF0FF30BDE8F08700BFAC93000000000000CD
:4066C00038B5074C002305460846236002F01EFE431C00D038BD2368002BFBD02B6038BD148AFF1F2DE9F04F03690F6983B09F4200F38B80013F01F1140600F1140A56F838
:4067000027305AF827200133B2FBF3F8BB00009306EB030953440193B8F1000F3DD000231C46B446D6461A465CF804BBDEF800501FFA8BF34FEA1B4B03FB08220BFB08F3CF
:4067400003EB124392B2A41A1FFA83FBAAB22244CBEB154404EB224492B242EA0442E1454EF8042B4FEA24444FEA1342DCD2009B5AF803308BB9019C231F9A450CD254F89D
:40678000043C4BB9A4F1080302E01A68043B1AB99A4507F1FF37F8D30761044601F01EFF00282EDB00235546194608F1010856F8042B2B6890B2081A120C99B2C2EB1343B7
:4067C000421803EB224392B242EA0342B14545F8042B4FEA2341EAD25AF827200AEB87037AB91A1F92450BD253F8042C42B9083B02E01A68043B1AB99A4507F1FF37F8D33D
:406800002761404603B0BDE8F08F002003B0BDE8F08F00BF000000002DE9F04F016C99B00446CDE90223259D41B1426C012393408B604A6001F09AFC00232364DDE9022383
:40684000002B994636DB00232B60A54B1A4609EA0303934217D0DDE902670022002330463946FAF78DFC804600282BD0249A01231360269B002B00F0CB809A48186001386F
:4068800019B0BDE8F08F42F20F73249A1360029B002B00F0A6809448269B002BF0D0C378002B00F0B78000F10803269A136019B0BDE8F08F039A012322F000492B60CDF889
:4068C0000C90C2E717AA16AB8DE80C00204632463B4601F0A3FF5FEA1955834640F08A80DDF85880179D6FF4826345449D42C0F295827E4A05F21243521B09FA02F9029AAF
:4069000022FA03F049EA0000FAF75CF90123013DA1F1F87112930022754BFAF715F86AA3D3E90023FAF7C4F969A3D3E90023FAF70DF8064628460F46FAF754F966A3D3E960
:406940000023FAF7B5F902460B4630463946F9F7FDFF06460F4602F069F939460590002230460023FAF716FC002840F0A481059B162B00F29D81DDE9022305985D4901EB8C
:40698000C001D1E90001FAF723FC002800F05082059B013B059300230C93C5EB0805B5F1010A00F19F8100230693059B002BC0F290819A440B9300230993229B092B2BD833
:4069C000052B40F37786043B22930025229B023B032B00F25586DFE813F0CF03C103B0026A06414B444AC9F31300002814BF1846104651E7C7F3130343F07F51CDF8488077
:406A00003046A5F2FF3541F44011DDF8588082E73A4835E7C31C48E7002161642046229101F07CFB4FF0FF33229A07930D9301230890239220640A93179B002BC0F2D0808E
:406A4000059A0E2A00F3CC802A4B03EBC203D3E90089239B002BC0F29283DDE9026742464B4630463946FAF74DFA02F0DFF88246FAF7B8F842464B46FAF71AF902460B4686
:406A800030463946F9F760FF079E089F0AF13005012E3D7002460B4607F1010562D00022174BFAF705F90022002306460F46FAF767FB002840F08180CDF808B0DDF820A05A
:406AC000DDF81CB006942AE061436F63A787D23FB3C8608B288AC63FFB799F501344D33F0000F07FA1950000C09500000EFCFFFF0000F83FD0960000B4950000A095000096
:406B0000000024400022C84BFAF7D2F80022002306460F46FAF734FB002840F0E08342464B4630463946FAF7EDF902F07FF80446FAF758F842464B46FAF7BAF802460B4612
:406B400030463946F9F700FF04F1300605F8016BCAEB0506B34502460B46D3D1A246DDF808B0069C10461946F9F7F0FE06460F464046494632463B46FAF70CFB48B94046D0
:406B8000494632463B46FAF7FBFAB0B11AF0010F13D015F8018C6B1E089904E08B4200F0458413F8018DB8F1390F03F101051A46F4D008F10103DBB213702046594601F030
:406BC000D5FA0022059B2A70249A01331360269B002B00F04A8308981D6019B0BDE8F08F0A9A002A00F08480229A012A40F30983079B5F1E099BBB42C0F2AF83DF1B079BAA
:406C0000002BC0F2A584069D079B069A20461A44012106929A4401F08FFB064665B1BAF1000F09DDAA455346A8BF2B46069AED1AD21A0692C3EB0A0A099B002B1ADD0A9BD8
:406C4000002B00F08383002F10DD31463A46204601F01CFC06465A463146204601F076FB80465946204601F081FAC346099BDA1B40F0A7822046012101F05EFB0B9B8046D6
:406C8000002B39DD01461A46204601F0FFFB229B8046012B40F39B824FF00009D8F8103008EB8303186901F0F9FAC0F120002DE001230C9371E60598F9F794FF32463B4655
:406CC000FAF75EFA00287FF452AE059B013B05934DE6069A059BD21A5B420993002306920B936AE6CAF1000306934FF0000A5CE6099F069D0A9E91E7229B012B40F3B88258
:406D00004FF000090B9B002BC8D10120504410F01F0000F08180C0F12003042B40F3C184C0F11C00069B0544034406938244069B002B05DD59461A46204601F0F7FB834645
:406D4000BAF1000F05DD41465246204601F0EEFB80460C9B002B40F06D82079B002B40F39B820A9B002B71D1DDF82090079F4D4604E05946204601F003FA834658464146AF
:406D8000FFF7B0FC303005F8010BC9EB0503BB424FF00A024FF00003EBDB089B079A8446012AACBF9B1801331D464FF0000A594601222046CDF808C001F0B8FB41468346DC
:406DC00001F00CFC0028DDF808C040F3FC8215F8012C6B1E089904E08B4200F0798213F8012D392A03F10105F6D001321A704146204601F0BBF9002E3FF4DFAEBAF1000FD1
:406E000005D0B24503D05146204601F0AFF93146204601F0ABF9D0E61C2083E7034B029A5B1B02FA03F06FE500002440EEFBFFFF0C90B2E53146002320460A2201F0A0F978
:406E40000D9B0646002B40F315840793002D05DD31462A46204601F069FB0646B9F1000F40F0EE82B146089A079B1746013BD3180993029B03F001030A9341465846FFF790
:406E800031FC31460546584601F0A8FB4A4682464146204601F0C6FBC268034605F1300C002A40F0BD8119465846CDF81CC0069301F094FB069B02901946204601F056F98E
:406EC000029ADDF81CC02AB9229B1BB90A9B002B00F0B083BAF1000FC0F2578205D1229B1BB90A9B002B00F05082002A00F3BC82099B07F1010A9F4287F800C0554600F0F3
:406F0000BF8259460A220023204601F039F94E458346314620464FF00A024FF0000300F0798101F02DF9494606460A222046002301F026F9574681469FE701230A93239BC9
:406F4000002B40F319821F461E460D9307930021172F61640AD9012204235B0003F114008742114602F10102F7D26164204601F0D5F80E2E089020643FF65EAD002D3FF499
:406F80005BADDDE902230599CDE90E23002940F32682BA4B01F00F020D1103EBC203E906D3E9006740F1E181DDE90E01B44B05F00F05D3E90823F9F7A5FFCDE902014FF088
:406FC00003088DB130463946DFF8B492EA0705D5D9E90023F9F76CFE08F101086D1009F10809F3D106460F46DDE9020132463B46F9F788FFCDE902010C9B43B1DDE90201E7
:407000000022A04BFAF7C6F8002840F0B5824046F9F7E8FDDDE90223F9F74AFE9A4B0022F9F794FC079B0646A1F15077002B00F06881059BDDF81CC013930A9B002B00F0FE
:4070400026828E4B002003EBCC0353E902238F49CDF850C0F9F756FF32463B46F9F774FCDDE90267CDE910013946304601F0DEFD0546F9F7B7FD02460B4630463946F9F7E2
:4070800063FCDDE9102330355FFA85F8089D064685F800800F460135FAF77CF8002840F0B98232463B4600207649F9F74DFC02460B46DDE91001FAF78BF8002840F0B3824A
:4070C000DDF850C0BCF1010F40F33A81089BCDF850A0CDF808B003EB0C09DDE910ABA0460FE032463B4600206649F9F72DFC52465B46FAF74FF8002840F090824D4500F094
:407100001A81504659460022614BF9F7D1FD00225F4B82468B4630463946F9F7C9FD0F46064601F083FD0446F9F75CFD02460B4630463946F9F708FC3034E4B205F8014B79
:4071400052465B4606460F46FAF724F80028C8D0139BDDF808B0444605932EE500230A93239B059A13440D930133002B079340F30A81079E3746EAE600230A93DFE6079B14
:40718000002B3FF76AAC40F0668240460022414B4946F9F78DFDDDE90223FAF70FF8DDF81C804646002800F08B80239B089DDB4305934146204600F0D9FF002E7FF427AEBC
:4071C000FBE45946204601F061F9834652E5029B002B7FF461AD039BC3F31303002B7FF48FAD039B23F000473F0D3F05002F00F01E82069B0AF1010A013306934FF00109CF
:4072000080E5129A002A00F0A98103F23343099F069DFAE400F0B4FF5746064681462CE601462046CDF808C000F0A0FF0122DDF808C04FE65846414601F0D0F90028BFF686
